:02000000742862
:10000800F000030EF10083120313031383128C1AFA
:100018002E20031383120C1C29280C10F0308F009B
:1000280000308E00C421A50A2508FA3C031C1D28AF
:100038002928A5012A182928A70AA71C2928A701C1
:10004800A60A2608033C0319A601710E8300F00EC8
:10005800700E0900031383121A08B1003108013A1F
:10006800031948283108023A03194D283108043A7F
:10007800031954283108053A03195B283108C03997
:10008800C03A03195E28732800302C180530672001
:1000980073282C08B4000310B40C340867207328A4
:1000A8002D08B4000310B40C3408672073282E08F8
:1000B8006720732831083F39B20062283208AC0043
:1000C8000310AC0D7328B50003138316981C6A2817
:1000D80003138312350899000313831208000800DC
:1000E800831688018701F0308600113085001930A9
:1000F80099001815181298160C148C168E309F003B
:1001080028308100831298171816013090000B17B9
:100118008B1781309F00880187018601851405159A
:10012800851585163230AC00AA01A901A601AE01D9
:100138006A21A908031D0E212A18A528AD20B72079
:10014800FA201322A9010608F039F03A031DA7285E
:100158009C281F151F19AE28031383161E080313A6
:100168008312AD0008002608003C0319C0282608A1
:10017800013C0319C928D2282D08E4203F302D1846
:100188006D30A2003930A30008002C08E4203F306D
:100198002C186D30A2006330A30008002E08963C8E
:1001A800031DDD280630A0006D30A1003F30A200FD
:1001B800E128A001A1013F30A2007130A30008008E
:1001C800B4000310B40CA001A1013408093C0318C1
:1001D800F1280A30B402A00AE9283408A10020084E
:1001E800E921A0002108E921A10008002D082C021E
:1001F80003190A29031C0529012986100614AE01D2
:100208000800061086149630AE0008000610861006
:10021800AE01080028080A3A031929292A1C0800EF
:100228002B08003A031933292B08013A03193C29F2
:100238002B08023A03194D292B08033A03195329AD
:100248002B08043A03195C2908002A14AB01403032
:10025800A000A100A200A300AF01B0010800280877
:10026800093C031C0800AF00E921A000AB0A080004
:100278002808093C031C08002F08B4000310AF0D20
:10028800AF0DAF07AF0D2808AF07E921A100AB0AF2
:10029800080028080E3A031D0800AB0A08002808C1
:1002A800093C031C0800B000E921A200AB0A0800C1
:1002B80028080F3A031D08002F08AC000310AC0DE6
:1002C8003008043C031CAC0AAA010800A801A901D3
:1002D80085140515851585161C2285101C22061EF9
:1002E800A129861EA329061FA529861FA7298514CB
:1002F8001C2205111C22061EA929861EAB29061FD1
:10030800AD29861FAF2905151C2285111C22061E42
:10031800B129861EB329061FB529861FB729851559
:100328001C2285121C22061EB929861EBB29061FFF
:10033800BD29861FBF29851608000130C129023052
:10034800C1290330C1290A30C1290430C129053027
:10035800C1290630C1290B30C1290730C12908300D
:10036800C1290930C1290C30C1290E30C1290030FA
:10037800C1290F30C1290D30C129A800291408004E
:100388008701A40A24080339A4002408003C03199F
:10039800D6292408013C0319DA292408023C031948
:1003A800E129E52920088800071408002108A61873
:1003B800DE2980388800871408002208880007157D
:1003C80008002308880087150800B9003908003A92
:1003D80003193F343908013A031906343908023A37
:1003E80003195B343908033A03194F343908043ABE
:1003F800031966343908053A03196D343908063A81
:1004080003197D343908073A031907343908083ABB
:1004180003197F343908093A03196F344034FA3024
:10042800B600FA30B700B70B172AB60B152A080022
:0C0438006430B8000000B80B1E2A080059
:02400E00323F3F
:00000001FF
